{
  "transactions": [
    {
      "hash": "0x4d3de765c8a3ca85fa4ab5002322575a55bff70025f7e535cf4fe3ed1d88334f",
      "transactionType": "CALL",
      "contractName": null,
      "contractAddress": "0xc7a5d38a81a2669f57cdc73ae3ca165685dcf23b",
      "function": "mintNft(string)",
      "arguments": [
        "\"ipfs://bafybeig37ioir76s7mg5oobetncojcm3c3hxasyd4rvid4jqhy4gkaheg4/?filename=0-PUG.json\""
      ],
      "transaction": {
        "from": "0x3b233a2d48305da0473822b8e723c77ea2ce9e61",
        "to": "0xc7a5d38a81a2669f57cdc73ae3ca165685dcf23b",
        "gas": "0x3d5b4",
        "value": "0x0",
        "input": "0xda86f4a900000000000000000000000000000000000000000000000000000000000000200000000000000000000000000000000000000000000000000000000000000057697066733a2f2f62616679626569673337696f6972373673376d67356f6f6265746e636f6a636d3363336878617379643472766964346a71687934676b61686567342f3f66696c656e616d653d302d5055472e6a736f6e000000000000000000",
        "nonce": "0x1",
        "chainId": "0xaa36a7"
      },
      "additionalContracts": [],
      "isFixedGasLimit": false
    }
  ],
  "receipts": [
    {
      "status": "0x1",
      "cumulativeGasUsed": "0x1c7467b",
      "logs": [
        {
          "address": "0xc7a5d38a81a2669f57cdc73ae3ca165685dcf23b",
          "topics": [
            "0xddf252ad1be2c89b69c2b068fc378daa952ba7f163c4a11628f55a4df523b3ef",
            "0x0000000000000000000000000000000000000000000000000000000000000000",
            "0x0000000000000000000000003b233a2d48305da0473822b8e723c77ea2ce9e61",
            "0x0000000000000000000000000000000000000000000000000000000000000000"
          ],
          "data": "0x",
          "blockHash": "0xa151b220e5d24af436bcdb8afc45500e131eb2794596f480bb29392b23eeb9ae",
          "blockNumber": "0x63a3a4",
          "transactionHash": "0x4d3de765c8a3ca85fa4ab5002322575a55bff70025f7e535cf4fe3ed1d88334f",
          "transactionIndex": "0x6f",
          "logIndex": "0xef",
          "removed": false
        }
      ],
      "logsBloom": "0x00000000000000000000000000000000000000000000000000400000000000000000000000000000001000000000000000000000000000000000000000000000000000000000000000000008000000080000000000000000000000000000000000000000020000000000000000000800000000000000000000000010004000000000000000000000000000000000000000000000000000002000000000000000000000000000000000002000000000000000000000000000000000000000000000000002000000000000000000000000000000000000000000000000000020000000000000000000000000000000000000000000000000000000000000000000",
      "type": "0x2",
      "transactionHash": "0x4d3de765c8a3ca85fa4ab5002322575a55bff70025f7e535cf4fe3ed1d88334f",
      "transactionIndex": "0x6f",
      "blockHash": "0xa151b220e5d24af436bcdb8afc45500e131eb2794596f480bb29392b23eeb9ae",
      "blockNumber": "0x63a3a4",
      "gasUsed": "0x2c6bd",
      "effectiveGasPrice": "0x90abe90f",
      "from": "0x3b233a2d48305da0473822b8e723c77ea2ce9e61",
      "to": "0xc7a5d38a81a2669f57cdc73ae3ca165685dcf23b",
      "contractAddress": null
    }
  ],
  "libraries": [],
  "pending": [],
  "returns": {},
  "timestamp": 1724063814,
  "chain": 11155111,
  "commit": "0b46886"
}